:100000000C942A000C94AA0F0C94DD0F0C94101081
:100010000C9401090C9434090C9447000C94670962
:100020000C949A090C94CD090C94000A0C94330A90
:100030000C9447000C9447000C9447000C94470024
:100040000C9460110C9447000C9447000C944700EA
:100050000C94470011241FBECFE5D8E0DEBFCDBF12
:1000600012E0A0E6B0E0ECE1F6E502C005900D92EA
:10007000A634B107D9F712E0A6E4B2E001C01D92A0
:10008000AD35B107E1F70E94842A0C940C2B0C9437
:100090000000EF92FF920F931F937B018C0120E0F1
:1000A00030E040E05FE40E94F50388238CF0C80153
:1000B000B70120E030E040E05FE40E94C1010E940F
:1000C000B3049B01AC01205030404040504806C072
:1000D000C801B7010E94B3049B01AC01B901CA0178
:1000E0001F910F91FF90EF900895A0E0B0E0EBE733
:1000F000F0E00C94D52ADC012B01FA019C9192309E
:1001000008F439C1EB018881823008F433C194309E
:1001100069F4843009F02FC111969C91119789815F
:10012000981709F428C1A6E2B1E025C1843009F48A
:1001300021C18230A9F4923009F01DC19A01AD01AC
:1001400088E0EA010990AE01E90109929E0181501F
:10015000C1F7E201898111969C918923818308C1AD
:10016000923009F407C112962D903C901397EB0141
:100170008A819B811496AD90BD90CD90DC901797AD
:10018000EC80FD800E811F819101281B390BB90184
:1001900037FF04C066277727621B730B6032710537
:1001A0000CF061C0121613066CF537014801062EDB
:1001B00004C096948794779467940A94D2F721E0C8
:1001C00030E040E050E004C0220F331F441F551FB1
:1001D0006A95D2F721503040404050402E213F21B7
:1001E00040235123211531054105510521F021E01E
:1001F00030E040E050E079018A01E628F72808293C
:1002000019293CC0232BD1F1260E371E350146019A
:10021000062E04C096948794779467940A94D2F734
:1002200021E030E040E050E004C0220F331F441FC3
:10023000551F6A95D2F721503040404050402A2146
:100240003B214C215D21211531054105510521F04E
:1002500021E030E040E050E059016A01A628B728CB
:10026000C828D9280BC0821593052CF01C01AA249C
:10027000BB24650103C0EE24FF24870111969C91E5
:10028000D20111968C91981709F445C0992339F041
:10029000A80197012A193B094C095D0906C0A6016E
:1002A00095012E193F09400B510B57FD08C01182D3
:1002B0003382228224833583468357831DC081E0A5
:1002C00081833382228288279927DC01821B930B4A
:1002D000A40BB50B84839583A683B7830DC0220F2F
:1002E000331F441F551F24833583468357838281E0
:1002F000938101979383828324813581468157813D
:10030000DA01C9010197A109B1098F5F9F4FAF4F72
:10031000BF4328F30BC0918333822282EA0CFB1C7B
:100320000C1D1D1DE482F5820683178383E0808304
:10033000248135814681578157FF1AC0C901AA27F8
:1003400097FDA095BA2F81709070A070B0705695EF
:10035000479537952795822B932BA42BB52B848318
:100360009583A683B7838281938101969383828349
:10037000DF0101C0D201CD01CDB7DEB7E2E10C94BF
:10038000F12AA0E2B0E0E7ECF1E00C94E12A698305
:100390007A838B839C832D833E834F835887E9E048
:1003A000EE2EF12CEC0EFD1ECE010196B7010E943F
:1003B000A4068E010F5E1F4FCE010596B8010E9464
:1003C000A4068A8991E089278A8BC701B801AE010A
:1003D000475E5F4F0E9475000E94CF05A096E6E041
:1003E0000C94FD2AA0E2B0E0E8EFF1E00C94E12AE1
:1003F00069837A838B839C832D833E834F835887C5
:10040000F9E0EF2EF12CEC0EFD1ECE010196B701A6
:100410000E94A4068E010F5E1F4FCE010596B80103
:100420000E94A406C701B801AE01475E5F4F0E945B
:1004300075000E94CF05A096E6E00C94FD2AA0E28C
:10044000B0E0E5E2F2E00C94D52A69837A838B83ED
:100450009C832D833E834F835887CE010196BE0136
:10046000675F7F4F0E94A406CE010596BE016F5EB6
:100470007F4F0E94A4069985923088F08989823046
:10048000C8F0943019F4823051F404C0843029F457
:10049000923081F486E291E0C6C0923049F420E0C7
:1004A0009A858A89981321E02A87CE010996BBC0D4
:1004B000823049F420E09A858A89981321E02A8BBA
:1004C000CE014196B0C02D843E844F8458886D88FB
:1004D0007E888F88988CEE24FF248701AA24BB2471
:1004E000650140E050E060E070E0E0E0F0E0C10174
:1004F00081709070892BE9F0E60CF71C081D191D1E
:100500009A01AB012A0D3B1D4C1D5D1D80E090E062
:10051000A0E0B0E0E614F7040805190520F481E036
:1005200090E0A0E0B0E0BA01A901480F591F6A1F8E
:100530007B1FAA0CBB1CCC1CDD1C97FE08C081E0F5
:1005400090E0A0E0B0E0A82AB92ACA2ADB2A3196B6
:10055000E032F10549F0660C771C881C991C569412
:10056000479437942794C3CFFA85EA892B893C892D
:100570008B859C85280F391F2E5F3F4F17C0CA01FE
:1005800081709070892B61F016950795F794E79428
:1005900080E090E0A0E0B0E8E82AF92A0A2B1B2BC3
:1005A00076956795579547952F5F3F4F77FDE7CF36
:1005B0000CC0440F551F661F771F17FD4160EE0CDE
:1005C000FF1C001F111F21503040403090E05907A0
:1005D00090E0690790E4790760F32B8F3C8FDB0193
:1005E000CA018F779070A070B07080349105A1051A
:1005F000B10561F447FD0AC0E114F10401051105DC
:1006000029F0405C5F4F6F4F7F4F40781A8EFE1786
:1006100011F081E08A8F4D8F5E8F6F8F78A383E01A
:10062000898FCE0149960E94CF05A096E2E10C94F5
:10063000F12AA8E1B0E0EFE1F3E00C94DD2A698350
:100640007A838B839C832D833E834F835887B9E0C5
:10065000EB2EF12CEC0EFD1ECE010196B7010E948F
:10066000A4068E010F5E1F4FCE010596B8010E94B1
:10067000A4062985223008F47EC03989323010F46E
:10068000B8017CC08A859A8989278A87243011F02D
:10069000223031F4231709F06EC066E271E06EC0BB
:1006A000343039F41D861E861F86188A1C861B86E8
:1006B00004C0323021F484E08987B7015FC02B8504
:1006C0003C858B899C89281B390B3C872B87ED84C3
:1006D000FE840F851889AD88BE88CF88D88CEA142F
:1006E000FB040C051D0540F4EE0CFF1C001F111F40
:1006F000215030403C872B8720E030E040E050E044
:1007000080E090E0A0E0B0E460E070E0EA14FB0478
:100710000C051D0540F0282B392B4A2B5B2BEA18C2
:10072000FB080C091D09B695A79597958795EE0CC2
:10073000FF1C001F111F6F5F7F4F6F31710531F775
:10074000DA01C9018F779070A070B0708034910584
:10075000A105B10561F427FD0AC0E114F10401050A
:10076000110529F0205C3F4F4F4F5F4F20782D87B8
:100770003E874F87588BBE01675F7F4FCB010E943A
:10078000CF056896EAE00C94F92AA8E1B0E0EBEC1A
:10079000F3E00C94E12A69837A838B839C832D8315
:1007A0003E834F83588789E0E82EF12CEC0EFD1E26
:1007B000CE010196B7010E94A4068E010F5E1F4F65
:1007C000CE010596B8010E94A4068985823040F0CA
:1007D0008989823028F0C701B8010E941C0701C036
:1007E0008FEF6896E6E00C94FD2AA8E1B0E0EBEF0D
:1007F000F3E00C94E12A69837A838B839C832D83B5
:100800003E834F83588789E0E82EF12CEC0EFD1EC5
:10081000CE010196B7010E94A4068E010F5E1F4F04
:10082000CE010596B8010E94A4068985823040F069
:100830008989823028F0C701B8010E941C0701C0D5
:100840008FEF6896E6E00C94FD2AA8E1B0E0EBE2B9
:10085000F4E00C94E12A69837A838B839C832D8353
:100860003E834F83588789E0E82EF12CEC0EFD1E65
:10087000CE010196B7010E94A4068E010F5E1F4FA4
:10088000CE010596B8010E94A4068985823040F009
:100890008989823028F0C701B8010E941C0701C075
:1008A00081E06896E6E00C94FD2AA8E0B0E0EBE574
:1008B000F4E00C94DE2A9B01AC0183E08983DA0129
:1008C000C9018827B7FD83959927AA27BB27B82E8A
:1008D000211531054105510519F482E089833AC09B
:1008E0008823A9F0203080E0380780E0480780E8BE
:1008F000580729F460E070E080E09FEC30C0EE24FF
:10090000FF248701E21AF30A040B150B02C07901D8
:100910008A018EE1C82ED12CDC82CB82ED82FE8250
:100920000F831887C801B7010E9480050197181628
:10093000190684F4082E04C0EE0CFF1C001F111FC2
:100940000A94D2F7ED82FE820F831887C81AD90A5B
:10095000DC82CB82BA82CE0101960E94CF05289616
:10096000E9E00C94FA2AACE0B0E0E9EBF4E00C9496
:10097000E52A69837A838B839C83CE010196BE012D
:100980006B5F7F4F0E94A4068D81823061F18230BF
:1009900050F1843021F48E81882351F12EC02F81B3
:1009A000388537FD20C06E812F3131051CF066235C
:1009B000F9F023C08EE190E0821B930B29853A85E4
:1009C0004B855C8504C056954795379527958A9544
:1009D000D2F76623B1F050954095309521953F4F61
:1009E0004F4F5F4F0EC020E030E040E050E009C0C4
:1009F0002FEF3FEF4FEF5FE704C020E030E040E033
:100A000050E8B901CA012C96E2E00C94012BA8E051
:100A1000B0E0EDE0F5E00C94DD2A7B018C0161157E
:100A200071058105910519F482E0898360C083E036
:100A300089838EE1C82ED12CDC82CB82ED82FE82AE
:100A40000F831887C801B7010E948005FC01319708
:100A5000F7FF3BC0222733272E1B3F0B57016801AE
:100A6000022E04C0D694C794B794A7940A94D2F7E0
:100A700040E050E060E070E081E090E0A0E0B0E0B5
:100A800004C0880F991FAA1FBB1F2A95D2F7019790
:100A9000A109B1098E219F21A023B1230097A105AF
:100AA000B10521F041E050E060E070E04A295B29A7
:100AB0006C297D294D835E836F8378878EE190E07A
:100AC0008E1B9F0B9C838B8312C0309781F00E2E60
:100AD00004C0EE0CFF1C001F111F0A94D2F7ED8218
:100AE000FE820F831887CE1ADF0ADC82CB821A823D
:100AF000CE0101960E94CF052896EAE00C94F92ACF
:100B0000EF92FF920F931F937B018C0180E0E81618
:100B100080E0F80681E0080780E0180788F48FEF8E
:100B2000E816F1040105110531F028F088E090E0A5
:100B3000A0E0B0E017C080E090E0A0E0B0E012C01C
:100B400080E0E81680E0F80680E0080781E01807FA
:100B500028F088E190E0A0E0B0E004C080E190E0FF
:100B6000A0E0B0E020E230E040E050E0281B390B8C
:100B70004A0B5B0B04C016950795F794E7948A958A
:100B8000D2F7F701E25DFE4F8081281B3109410950
:100B90005109C9011F910F91FF90EF900895DF92C5
:100BA000EF92FF920F931F93FC01E480F580068182
:100BB0001781D1808081823048F480E090E0A0E10C
:100BC000B0E0E82AF92A0A2B1B2BA5C0843009F4CF
:100BD0009FC0823021F4EE24FF24870105C0E11478
:100BE000F1040105110519F4E0E0F0E096C062811E
:100BF00073819FEF623879070CF05BC022E83FEF0A
:100C0000261B370B2A3131052CF020E030E040E084
:100C100050E02AC0B801A701022E04C0769567955E
:100C2000579547950A94D2F781E090E0A0E0B0E0B4
:100C300004C0880F991FAA1FBB1F2A95D2F70197DE
:100C4000A109B1098E219F21A023B1230097A105FD
:100C5000B10521F081E090E0A0E0B0E09A01AB01A5
:100C6000282B392B4A2B5B2BDA01C9018F77907027
:100C7000A070B07080349105A105B10539F427FF4B
:100C800009C0205C3F4F4F4F5F4F04C0215C3F4F76
:100C90004F4F5F4FE0E0F0E02030A0E03A07A0E0E7
:100CA0004A07A0E45A0710F0E1E0F0E079018A0178
:100CB00027C06038710564F5FB01E158FF4FD8018A
:100CC000C7018F779070A070B07080349105A10536
:100CD000B10539F4E7FE0DC080E490E0A0E0B0E09B
:100CE00004C08FE390E0A0E0B0E0E80EF91E0A1F18
:100CF0001B1F17FF05C016950795F794E7943196CB
:100D000087E016950795F794E7948A95D1F705C083
:100D1000EE24FF248701EFEFF0E06E2F6795662742
:100D20006795902F9F77D794DD24D7948E2F869543
:100D3000492F462B582F5D29B701CA011F910F91EA
:100D4000FF90EF90DF900895FC01DB01408151811D
:100D50002281622F6F7770E0221F2227221F93814A
:100D6000892F880F822B282F30E0991F9927991FF0
:100D700011969C93119721153105A9F5411551053F
:100D80006105710511F482E037C082E89FEF139688
:100D90009C938E9312979A01AB0167E0220F331F49
:100DA000441F551F6A95D1F783E08C930DC0220F25
:100DB000331F441F551F12968D919C9113970197D5
:100DC00013969C938E931297203080E0380780E032
:100DD000480780E4580758F314962D933D934D939C
:100DE0005C93179708952F3F310579F4411551050C
:100DF0006105710519F484E08C93089564FF03C0C4
:100E000081E08C9312C01C9210C02F573040139673
:100E10003C932E93129783E08C9387E0440F551FE9
:100E2000661F771F8A95D1F7706414964D935D9372
:100E30006D937C93179708951F93DC01FB019C91A0
:100E4000923008F447C08081823008F443C0943067
:100E500051F411961C91843099F58181682F70E0CE
:100E6000611B71093FC0843021F0923031F482302F
:100E7000B9F18181882389F12DC011961C911197B8
:100E80008230F1F081811817D9F412962D913C919E
:100E90001397828193818217930794F0281739075B
:100EA000BCF014968D919D910D90BC91A02D248144
:100EB000358146815781281739074A075B0718F49F
:100EC000112341F00AC082179307A407B50740F425
:100ED000112319F061E070E005C06FEF7FEF02C0F1
:100EE00060E070E0CB011F910895DF93CF93CDB701
:100EF000DEB7AFE4B0E0EFE4F0E080818E7F8C936A
:100F0000AFE4B0E0EFE4F0E0808182608C93AEE487
:100F1000B0E0EEE4F0E0808188608C93AEE4B0E075
:100F2000EEE4F0E0808180618C93AFE4B0E0EFE428
:100F3000F0E080818F7B8C93AFE4B0E0EFE4F0E0F1
:100F4000808180688C93EAE4F0E011821082A5E44D
:100F5000B0E0E5E4F0E0808180648C93A5E4B0E04B
:100F6000E5E4F0E0808188608C93A5E4B0E0E5E4FE
:100F7000F0E080818F7E8C93A5E4B0E0E5E4F0E0C2
:100F8000808180628C93E3E4F0E01082CF91DF9166
:100F90000895DF93CF9300D00F92CDB7DEB789834A
:100FA0007B836A830F900F900F90CF91DF9108950C
:100FB000DF93CF9300D00F92CDB7DEB789838981BD
:100FC000282F30E03B832A838A819B8181309105E1
:100FD00031F02A813B812230310581F01DC0AEE421
:100FE000B0E0EEE4F0E08081887F8C93AEE4B0E086
:100FF000EEE4F0E0808182608C930EC0A5E4B0E066
:10100000E5E4F0E08081887F8C93A5E4B0E0E5E43E
:10101000F0E0808182608C930F900F900F90CF91C1
:10102000DF910895DF93CF9300D00F92CDB7DEB755
:1010300089838981282F30E03B832A838A819B81A1
:1010400081309105B9F02A813B812230310501F1CF
:101050008A819B81009749F5A3E5B0E0E3E5F0E0E4
:101060008081887F8C93A3E5B0E0E3E5F0E08081A8
:101070008C931BC0AEE4B0E0EEE4F0E08081887FAA
:101080008C93AEE4B0E0EEE4F0E080818C930DC090
:10109000A5E4B0E0E5E4F0E08081887F8C93A5E4EE
:1010A000B0E0E5E4F0E080818C930F900F900F901A
:1010B000CF91DF910895DF93CF9300D00F92CDB7FA
:1010C000DEB789837B836A830F900F900F90CF9157
:1010D000DF910895DF93CF9300D000D00F92CDB76A
:1010E000DEB789837B836A838981282F30E03D8343
:1010F0002C838C819D818130910571F02C813D8103
:101100002230310581F08C819D81009781F4E2E5E8
:10111000F0E08A8180830BC0ECE4F0E08A819B815F
:101120009183808304C0E4E4F0E08A8180830F909F
:101130000F900F900F900F90CF91DF910895DF9354
:10114000CF93CDB7DEB728970FB6F894DEBF0FBEAA
:10115000CDBF89836A835C834B838981282F30E0EC
:1011600038872F838F8198858130910571F02F8189
:1011700038852230310531F18F819885009731F51E
:10118000ECE5F0E08B81808321C08A81282F30E05C
:101190003E832D838D819E81009731F02D813E818C
:1011A0002130310541F012C0EAE4F0E08B819C81EE
:1011B000918380830BC0E8E4F0E08B819C81918374
:1011C000808304C0E3E4F0E08B81808328960FB62F
:1011D000F894DEBF0FBECDBFCF91DF910895DF93AE
:1011E000CF9300D0CDB7DEB79A838983E6E4F0E0F1
:1011F00089819A81918380830F900F90CF91DF91A5
:1012000008951F920F920FB60F9211242F933F93C0
:101210004F935F936F937F938F939F93AF93BF93FE
:10122000EF93FF93DF93CF93CDB7DEB78091520258
:1012300090915302009729F0E0915202F0915302ED
:101240000995CF91DF91FF91EF91BF91AF919F9160
:101250008F917F916F915F914F913F912F910F905F
:101260000FBE0F901F9018951F920F920FB60F92FE
:1012700011242F933F934F935F936F937F938F939B
:101280009F93AF93BF93EF93FF93DF93CF93CDB72C
:10129000DEB78091500290915102009729F0E091C1
:1012A0005002F09151020995CF91DF91FF91EF919A
:1012B000BF91AF919F918F917F916F915F914F916E
:1012C0003F912F910F900FBE0F901F9018951F9276
:1012D0000F920FB60F9211242F933F934F935F936A
:1012E0006F937F938F939F93AF93BF93EF93FF93EE
:1012F000DF93CF93CDB7DEB780914C0290914D0232
:10130000009729F0E0914C02F0914D020995CF91A0
:10131000DF91FF91EF91BF91AF919F918F917F915D
:101320006F915F914F913F912F910F900FBE0F9052
:101330001F9018951F920F920FB60F9211242F93A2
:101340003F934F935F936F937F938F939F93AF934D
:10135000BF93EF93FF93DF93CF93CDB7DEB7809129
:101360004E0290914F02009729F0E0914E02F091C9
:101370004F020995CF91DF91FF91EF91BF91AF910E
:101380009F918F917F916F915F914F913F912F919D
:101390000F900FBE0F901F9018951F920F920FB6CF
:1013A0000F9211242F933F934F935F936F937F93EB
:1013B0008F939F93AF93BF93EF93FF93DF93CF935D
:1013C000CDB7DEB780914A0290914B02009729F089
:1013D000E0914A02F0914B020995CF91DF91FF9184
:1013E000EF91BF91AF919F918F917F916F915F919D
:1013F0004F913F912F910F900FBE0F901F90189516
:101400001F920F920FB60F9211242F933F934F9379
:101410005F936F937F938F939F93AF93BF93EF935C
:10142000FF93DF93CF93CDB7DEB7809148029091C1
:101430004902009729F0E0914802F091490209958C
:10144000CF91DF91FF91EF91BF91AF919F918F91DC
:101450007F916F915F914F913F912F910F900FBEB0
:101460000F901F9018951F920F920FB60F92112494
:101470002F933F934F935F936F937F938F939F939C
:10148000AF93BF93EF93FF93DF93CF93CDB7DEB7C7
:101490008091460290914702009729F0E091460220
:1014A000F09147020995CF91DF91FF91EF91BF91A4
:1014B000AF919F918F917F916F915F914F913F91EC
:1014C0002F910F900FBE0F901F901895DF93CF9321
:1014D000CDB7DEB7E1E2F0E01082E0E2F0E080E2DA
:1014E0008083E6E5F0E084E08083CF91DF9108958A
:1014F000DF93CF93CDB7DEB7E6E5F0E084EA8083F3
:10150000E6E5F0E080818823DCF7CF91DF91089554
:10151000DF93CF930F92CDB7DEB78983E3E2F0E09C
:1015200089818083E6E5F0E084E88083E6E5F0E009
:1015300080818823DCF70F90CF91DF910895DF93AE
:10154000CF93CDB7DEB7E6E5F0E084E88083E6E54B
:10155000F0E080818823DCF7E3E2F0E08081CF9146
:10156000DF910895DF93CF9300D000D0CDB7DEB7E1
:1015700089836A838981282F30E03C832B838B8188
:101580009C8182309105D9F02B813C81233031053B
:1015900034F48B819C818130910561F01EC02B81D8
:1015A0003C812330310581F08B819C818430910511
:1015B00081F013C0EAE3F0E08A8180830EC0E7E3A4
:1015C000F0E08A81808309C0E4E3F0E08A818083CF
:1015D00004C0E1E3F0E08A8180830F900F900F90C8
:1015E0000F90CF91DF910895DF93CF93CDB7DEB702
:1015F00027970FB6F894DEBF0FBECDBF89836A83ED
:101600004B838A81883008F0ECC08B81813009F0EF
:1016100070C08981282F30E03F832E838E819F8187
:101620008230910551F12E813F812330310534F410
:101630008E819F818130910561F0D3C02E813F81E1
:101640002330310571F18E819F8184309105E9F15C
:10165000C8C0AAE3B0E0EAE3F0E08081482F8A81C5
:10166000282F30E081E090E0022E02C0880F991F01
:101670000A94E2F7842B8C93B4C0A7E3B0E0E7E3CD
:10168000F0E08081482F8A81282F30E081E090E0CF
:10169000022E02C0880F991F0A94E2F7842B8C93C4
:1016A000A0C0A4E3B0E0E4E3F0E08081482F8A81A9
:1016B000282F30E081E090E0022E02C0880F991FB1
:1016C0000A94E2F7842B8C938CC0A1E3B0E0E1E3B1
:1016D000F0E08081482F8A81282F30E081E090E07F
:1016E000022E02C0880F991F0A94E2F7842B8C9374
:1016F00078C08B81882309F074C08981282F30E05D
:101700003D832C838C819D818230910561F12C81F8
:101710003D812330310534F48C819D8181309105E8
:1017200069F05FC02C813D812330310589F18C81C6
:101730009D818430910509F440C053C0AAE3B0E014
:10174000EAE3F0E08081482F8A81282F30E081E0B1
:1017500090E0022E02C0880F991F0A94E2F780954C
:1017600084238C933EC0A7E3B0E0E7E3F0E0808100
:10177000482F8A81282F30E081E090E0022E02C0BD
:10178000880F991F0A94E2F7809584238C9329C0CF
:10179000A4E3B0E0E4E3F0E08081482F8A81282FC1
:1017A00030E081E090E0022E02C0880F991F0A9479
:1017B000E2F7809584238C9314C0A1E3B0E0E1E3C9
:1017C000F0E08081482F8A81282F30E081E090E08E
:1017D000022E02C0880F991F0A94E2F78095842395
:1017E0008C9327960FB6F894DEBF0FBECDBFCF9176
:1017F000DF910895DF93CF9300D000D0CDB7DEB74F
:1018000089836A838981282F30E03C832B838B81F5
:101810009C8182309105D9F02B813C8123303105A8
:1018200034F48B819C818130910561F01EC02B8145
:101830003C812330310581F08B819C81843091057E
:1018400081F013C0EBE3F0E08A8180830EC0E8E30F
:10185000F0E08A81808309C0E5E3F0E08A8180833B
:1018600004C0E2E3F0E08A8180830F900F900F9034
:101870000F90CF91DF910895DF93CF93CDB7DEB76F
:1018800027970FB6F894DEBF0FBECDBF89836A835A
:101890004B838A81883008F0ECC08B81813009F05D
:1018A00070C08981282F30E03F832E838E819F81F5
:1018B0008230910551F12E813F812330310534F47E
:1018C0008E819F818130910561F0D3C02E813F814F
:1018D0002330310571F18E819F8184309105E9F1CA
:1018E000C8C0ABE3B0E0EBE3F0E08081482F8A8131
:1018F000282F30E081E090E0022E02C0880F991F6F
:101900000A94E2F7842B8C93B4C0A8E3B0E0E8E338
:10191000F0E08081482F8A81282F30E081E090E03C
:10192000022E02C0880F991F0A94E2F7842B8C9331
:10193000A0C0A5E3B0E0E5E3F0E08081482F8A8114
:10194000282F30E081E090E0022E02C0880F991F1E
:101950000A94E2F7842B8C938CC0A2E3B0E0E2E31C
:10196000F0E08081482F8A81282F30E081E090E0EC
:10197000022E02C0880F991F0A94E2F7842B8C93E1
:1019800078C08B81882309F074C08981282F30E0CA
:101990003D832C838C819D818230910561F12C8166
:1019A0003D812330310534F48C819D818130910556
:1019B00069F05FC02C813D812330310589F18C8134
:1019C0009D818430910509F440C053C0ABE3B0E081
:1019D000EBE3F0E08081482F8A81282F30E081E01E
:1019E00090E0022E02C0880F991F0A94E2F78095BA
:1019F00084238C933EC0A8E3B0E0E8E3F0E080816C
:101A0000482F8A81282F30E081E090E0022E02C02A
:101A1000880F991F0A94E2F7809584238C9329C03C
:101A2000A5E3B0E0E5E3F0E08081482F8A81282F2C
:101A300030E081E090E0022E02C0880F991F0A94E6
:101A4000E2F7809584238C9314C0A2E3B0E0E2E334
:101A5000F0E08081482F8A81282F30E081E090E0FB
:101A6000022E02C0880F991F0A94E2F78095842302
:101A70008C9327960FB6F894DEBF0FBECDBFCF91E3
:101A8000DF910895DF93CF9300D000D0CDB7DEB7BC
:101A90008A8319828A81282F30E03C832B838B81B3
:101AA0009C8182309105D9F02B813C812330310516
:101AB00034F48B819C818130910561F01EC02B81B3
:101AC0003C812330310581F08B819C8184309105EC
:101AD00081F013C0E9E3F0E0808189830EC0E6E382
:101AE000F0E08081898309C0E3E3F0E080818983AD
:101AF00004C0E0E3F0E08081898389810F900F903A
:101B00000F900F90CF91DF910895DF93CF9300D086
:101B100000D00F92CDB7DEB78A836B8319828B8199
:101B2000883008F067C08A81282F30E03D832C83FD
:101B30004C815D814230510541F18C819D81833022
:101B4000910534F42C813D812130310561F052C082
:101B50004C815D814330510551F18C819D818430F0
:101B60009105B9F147C0E9E3F0E08081282F30E02A
:101B70008B81882F90E0A90102C0559547958A95E1
:101B8000E2F7CA018170898335C0E6E3F0E0808125
:101B9000282F30E08B81882F90E0A90102C0559555
:101BA00047958A95E2F7CA018170898323C0E3E3F0
:101BB000F0E08081282F30E08B81882F90E0A90110
:101BC00002C0559547958A95E2F7CA0181708983CD
:101BD00011C0E0E3F0E08081282F30E08B81882F76
:101BE00090E0A90102C0559547958A95E2F7CA0190
:101BF0008170898389810F900F900F900F900F90C3
:101C0000CF91DF910895DF93CF93CDB7DEB7AFE5E6
:101C1000B0E0EFE5F0E0808180688C93CF91DF91B8
:101C20000895DF93CF93CDB7DEB7AFE5B0E0EFE532
:101C3000F0E080818F778C93CF91DF910895DF93CF
:101C4000CF9300D000D0CDB7DEB789836A83898176
:101C5000282F30E03C832B838B819C818130910540
:101C6000D1F02B813C812230310531F18B819C8177
:101C7000009791F584E062E040E00E94F40A80E081
:101C80006A810E94AA0EABE5B0E0EBE5F0E080814E
:101C900080648C9321C084E063E040E00E94F40AF9
:101CA00081E06A810E94AA0EABE5B0E0EBE5F0E0CE
:101CB000808180688C9310C082E062E040E00E94E6
:101CC000F40A82E06A810E94AA0EABE5B0E0EBE57F
:101CD000F0E0808180628C930F900F900F900F90B6
:101CE000CF91DF910895DF93CF9300D00F92CDB7BE
:101CF000DEB789838981282F30E03B832A838A815C
:101D00009B818130910589F02A813B812230310508
:101D1000A1F08A819B810097B9F4ABE5B0E0EBE5D7
:101D2000F0E080818F7B8C930FC0ABE5B0E0EBE5FA
:101D3000F0E080818F778C9307C0ABE5B0E0EBE5F6
:101D4000F0E080818F7D8C930F900F900F90CF915A
:101D5000DF910895DF93CF93CDB7DEB72A970FB603
:101D6000F894DEBF0FBECDBF89836A838981282F97
:101D700030E03A87298789859A858130910509F471
:101D800066C029853A852230310509F4BBC08985B2
:101D90009A85009709F0D5C08A81282F30E03887CE
:101DA0002F838F81988581309105A9F02F81388507
:101DB000223031052CF48F8198850097C9F1C1C07C
:101DC0002F81388522303105A9F08F8198858330A5
:101DD0009105F9F0B6C0A5E5B0E0E5E5F0E0808159
:101DE0008D7F8C93A5E5B0E0E5E5F0E08081816032
:101DF0008C93A7C0A5E5B0E0E5E5F0E080818260C6
:101E00008C93A5E5B0E0E5E5F0E080818E7F8C93D2
:101E100098C0A5E5B0E0E5E5F0E0808182608C93B4
:101E2000A5E5B0E0E5E5F0E0808181608C9389C0B4
:101E3000A5E5B0E0E5E5F0E080818D7F8C93A5E538
:101E4000B0E0E5E5F0E080818E7F8C937AC08A81F6
:101E5000282F30E03E832D838D819E818130910536
:101E6000A9F02D813E81223031052CF48D819E8197
:101E70000097C9F166C02D813E8122303105A9F05D
:101E80008D819E8183309105F9F05BC0A5E5B0E0BE
:101E9000E5E5F0E08081877F8C93A5E5B0E0E5E59E
:101EA000F0E0808184608C934CC0A5E5B0E0E5E56E
:101EB000F0E0808188608C93A5E5B0E0E5E5F0E096
:101EC00080818B7F8C933DC0A5E5B0E0E5E5F0E037
:101ED000808188608C93A5E5B0E0E5E5F0E0808145
:101EE00084608C932EC0A5E5B0E0E5E5F0E080814C
:101EF000877F8C93A5E5B0E0E5E5F0E080818B7FFE
:101F00008C931FC08A81282F30E03C832B838B81E8
:101F10009C818230910531F02B813C812330310549
:101F200049F00FC0A4E5B0E0E4E5F0E080818F7BEC
:101F30008C9307C0A4E5B0E0E4E5F0E08081806424
:101F40008C932A960FB6F894DEBF0FBECDBFCF910B
:101F5000DF9108951F920F920FB60F9211242F93C5
:101F60003F934F935F936F937F938F939F93AF9321
:101F7000BF93EF93FF93DF93CF93CDB7DEB78091FD
:101F8000540290915502009729F0E0915402F0918B
:101F900055020995CF91DF91FF91EF91BF91AF91DC
:101FA0009F918F917F916F915F914F913F912F9171
:101FB0000F900FBE0F901F9018951F920F920FB6A3
:101FC0000F9211242F933F934F935F936F937F93BF
:101FD0008F939F93AF93BF93EF93FF93DF93CF9331
:101FE000CDB7DEB78091560290915702009729F045
:101FF000E0915602F09157020995CF91DF91FF9140
:10200000EF91BF91AF919F918F917F916F915F9170
:102010004F913F912F910F900FBE0F901F901895E9
:102020001F920F920FB60F9211242F933F934F934D
:102030005F936F937F938F939F93AF93BF93EF9330
:10204000FF93DF93CF93CDB7DEB780915802909185
:102050005902009729F0E0915802F0915902099530
:10206000CF91DF91FF91EF91BF91AF919F918F91B0
:102070007F916F915F914F913F912F910F900FBE84
:102080000F901F901895DF93CF9300D000D00F9240
:10209000CDB7DEB789837B836A838981282F30E0BF
:1020A0003D832C838C819D818130910581F02C8131
:1020B0003D812230310591F08C819D810097A1F402
:1020C0008A819B8190935502809354020DC08A812E
:1020D0009B81909357028093560206C08A819B8110
:1020E00090935902809358020F900F900F900F9089
:1020F0000F90CF91DF910895DF93CF93CDB7DEB7E7
:10210000A7E2B0E0E7E2F0E0808180648C93A7E290
:10211000B0E0E7E2F0E080818F778C93A7E2B0E057
:10212000E7E2F0E080818F7D8C93A6E2B0E0E6E20A
:10213000F0E0808180688C93A6E2B0E0E6E2F0E017
:102140008081877F8C93A6E2B0E0E6E2F0E08081B8
:102150008F7D8C93CF91DF910895DF93CF930F9272
:10216000CDB7DEB78983A7E2B0E0E7E2F0E0808197
:10217000807E8C93A7E2B0E0E7E2F0E08081982FC8
:1021800089818770892B8C93A6E2B0E0E6E2F0E0CB
:10219000808180648C93E6E2F0E080818295869570
:1021A00086958370882F90E081709070882399F7CE
:1021B000A6E2B0E0E6E2F0E0808180618C93E4E2A8
:1021C000F0E0808191810F90CF91DF910895DF93AE
:1021D000CF930F92CDB7DEB78983A7E2B0E0E7E2F5
:1021E000F0E08081807E8C93A7E2B0E0E7E2F0E04F
:1021F0008081982F89818770892B8C93A6E2B0E02B
:10220000E6E2F0E0808180648C930F90CF91DF91C3
:102210000895DF93CF930F92CDB7DEB78983A7E2FE
:10222000B0E0E7E2F0E08081807E8C93A7E2B0E04E
:10223000E7E2F0E08081982F89818770892B8C9369
:10224000E4E2F0E0808191810F90CF91DF910895D9
:10225000DF93CF93CDB7DEB7A6E2B0E0E6E2F0E0E1
:10226000808188608C93CF91DF910895DF93CF9325
:10227000CDB7DEB7A6E2B0E0E6E2F0E08081877F8E
:102280008C93CF91DF910895DF93CF93CDB7DEB7D5
:10229000A6E2B0E0E6E2F0E0808180688C93CF9126
:1022A000DF910895DF93CF93CDB7DEB7A6E2B0E01C
:1022B000E6E2F0E080818F778C93CF91DF910895F3
:1022C0001F920F920FB60F9211242F933F934F93AB
:1022D0005F936F937F938F939F93AF93BF93EF938E
:1022E000FF93DF93CF93CDB7DEB780915A029091E1
:1022F0005B02009729F0E0915A02F0915B02099588
:10230000CF91DF91FF91EF91BF91AF919F918F910D
:102310007F916F915F914F913F912F910F900FBEE1
:102320000F901F901895DF93CF9300D0CDB7DEB7F5
:102330009A83898389819A8190935B0280935A0260
:102340000F900F90CF91DF910895DF93CF93CDB78A
:10235000DEB784E065E041E00E94F40A80E29EE49A
:102360000E94EF08CF91DF910895DF93CF9300D0C3
:102370000F92CDB7DEB78B838B81882F90E0AA2791
:1023800097FDA095BA2FBC01CD010E945504DC0138
:10239000CB01BC01CD012CEE31E548E35EE30E94A8
:1023A0001903DC01CB01BC01CD0120E030E04AE79C
:1023B00054E40E94F201DC01CB01BC01CD010E947A
:1023C0004900DC01CB019A83898329813A8181E02C
:1023D00060E0A9010E949F080F900F900F90CF918D
:1023E000DF910895DF93CF93CDB7DEB781E060E052
:1023F00048EE53E00E949F08CF91DF9108950F931C
:102400001F93DF93CF93CDB7DEB7C654D0400FB63E
:10241000F894DEBF0FBECDBFFE01ED5BFF4F80E045
:1024200090E0A0E2B2E480839183A283B3838E0123
:10243000015C1F4FFE01ED5BFF4F60817181828166
:10244000938120E030E04AEF54E40E941F02DC0157
:10245000CB01F80180839183A283B383FE01FF96B1
:10246000608171818281938120E030E040E85FE308
:102470000E94250488232CF481E090E09EAF8DAF6C
:1024800046C0FE01FF96608171818281938120E0C8
:102490003FEF4FE757E40E94C503181664F5FE01AD
:1024A000ED5BFF4F608171818281938120E030E09C
:1024B00040E251E40E941F02DC01CB01BC01CD01CE
:1024C0000E944900DC01CB019EAF8DAF0FC088ECAC
:1024D00090E09CAF8BAF8BAD9CAD0197F1F79CAFBB
:1024E0008BAF8DAD9EAD01979EAF8DAF8DAD9EAD87
:1024F000009769F716C0FE01FF96608171818281A5
:1025000093810E944900DC01CB019EAF8DAF8DAD60
:102510009EAD9AAF89AF89AD9AAD0197F1F79AAFA9
:1025200089AF80E30E941C1580E20E941C1588E29E
:102530000E945B1580E090E0A0E8BFE38DAB9EAB0E
:10254000AFABB8AF6DA97EA98FA998AD20E030E000
:102550004AEF54E40E941F02DC01CB0189AB9AAB25
:10256000ABABBCAB69A97AA98BA99CA920E030E0F0
:1025700040E85FE30E94250488232CF481E090E08A
:1025800098AB8FA73FC069A97AA98BA99CA920E025
:102590003FEF4FE757E40E94C50318164CF56DA9AD
:1025A0007EA98FA998AD20E030E040E251E40E947E
:1025B0001F02DC01CB01BC01CD010E944900DC01FE
:1025C000CB0198AB8FA70FC088EC90E09EA78DA79A
:1025D0008DA59EA50197F1F79EA78DA78FA598A918
:1025E000019798AB8FA78FA598A9009769F714C09A
:1025F00069A97AA98BA99CA90E944900DC01CB0199
:1026000098AB8FA78FA598A99CA78BA78BA59CA5F6
:102610000197F1F79CA78BA78CE00E945B1580E0E7
:1026200090E0A0E8BFE38FA398A7A9A7BAA76FA1DE
:1026300078A589A59AA520E030E04AEF54E40E94ED
:102640001F02DC01CB018BA39CA3ADA3BEA36BA196
:102650007CA18DA19EA120E030E040E85FE30E94D4
:10266000250488232CF481E090E09AA389A33FC03D
:102670006BA17CA18DA19EA120E03FEF4FE757E425
:102680000E94C50318164CF56FA178A589A59AA5D7
:1026900020E030E040E251E40E941F02DC01CB0167
:1026A000BC01CD010E944900DC01CB019AA389A3A2
:1026B0000FC088EC90E098A38F8F8F8D98A1019721
:1026C000F1F798A38F8F89A19AA101979AA389A363
:1026D00089A19AA1009769F714C06BA17CA18DA173
:1026E0009EA10E944900DC01CB019AA389A389A184
:1026F0009AA19E8F8D8F8D8D9E8D0197F1F79E8F64
:102700008D8F81E00E945B1580E090E0A0E0B0E456
:10271000898F9A8FAB8FBC8F698D7A8D8B8D9C8DB5
:1027200020E030E04AEF54E40E941F02DC01CB01BC
:102730008D8B9E8BAF8BB88F6D897E898F89988D9D
:1027400020E030E040E85FE30E94250488232CF479
:1027500081E090E09C8B8B8B3FC06D897E898F8957
:10276000988D20E03FEF4FE757E40E94C50318160D
:102770004CF5698D7A8D8B8D9C8D20E030E040E2A8
:1027800051E40E941F02DC01CB01BC01CD010E947B
:102790004900DC01CB019C8B8B8B0FC088EC90E057
:1027A0009A8B898B89899A890197F1F79A8B898B02
:1027B0008B899C8901979C8B8B8B8B899C8900973B
:1027C00069F714C06D897E898F89988D0E944900B0
:1027D000DC01CB019C8B8B8B8B899C89988B8F87A1
:1027E0008F8598890197F1F7988B8F8786E00E94F3
:1027F0005B1580E090E0A0E8BFE38B879C87AD8706
:10280000BE876B857C858D859E8520E030E04AEF14
:1028100054E40E941F02DC01CB018F839887A987B3
:10282000BA876F81788589859A8520E030E040E815
:102830005FE30E94250488232CF481E090E09E83CE
:102840008D833FC06F81788589859A8520E03FEF31
:102850004FE757E40E94C50318164CF56B857C853D
:102860008D859E8520E030E040E251E40E941F0209
:10287000DC01CB01BC01CD010E944900DC01CB0190
:102880009E838D830FC088EC90E09C838B838B812B
:102890009C810197F1F79C838B838D819E810197A9
:1028A0009E838D838D819E81009769F714C06F810F
:1028B000788589859A850E944900DC01CB019E8339
:1028C0008D838D819E819A83898389819A810197E5
:1028D000F1F79A838983CA5BDF4F0FB6F894DEBFA6
:1028E0000FBECDBFCF91DF911F910F910895DF9360
:1028F000CF93CDB7DEB72E970FB6F894DEBF0FBEDD
:10290000CDBFA3E2B0E0E3E2F0E0808182608C938F
:10291000E6E5F0E084E88083E6E5F0E08081882366
:10292000DCF780E090E0A0E8BFE38B879C87AD8771
:10293000BE876B857C858D859E8520E030E04AEFE3
:1029400054E40E941F02DC01CB018F839887A98782
:10295000BA876F81788589859A8520E030E040E8E4
:102960005FE30E94250488232CF481E090E09E839D
:102970008D833FC06F81788589859A8520E03FEF00
:102980004FE757E40E94C50318164CF56B857C850C
:102990008D859E8520E030E040E251E40E941F02D8
:1029A000DC01CB01BC01CD010E944900DC01CB015F
:1029B0009E838D830FC088EC90E09C838B838B81FA
:1029C0009C810197F1F79C838B838D819E81019778
:1029D0009E838D838D819E81009769F714C06F81DE
:1029E000788589859A850E944900DC01CB019E8308
:1029F0008D838D819E819A83898389819A810197B4
:102A0000F1F79A838983A3E2B0E0E3E2F0E080810A
:102A10008D7F8C93E6E5F0E084E88083E6E5F0E0E6
:102A200080818823DCF72E960FB6F894DEBF0FBEA8
:102A3000CDBFCF91DF910895DF93CF930F92CDB7A4
:102A4000DEB78983A3E2B0E0E3E2F0E080818E7F2D
:102A50008C93E6E5F0E084E88083E6E5F0E08081B1
:102A60008823DCF7A3E2B0E0E3E2F0E080818F703E
:102A70008C93E6E5F0E084E88083E6E5F0E0808191
:102A80008823DCF7A3E2B0E0E3E2F0E08081982F56
:102A90008981807F892B8C93E6E5F0E084E8808350
:102AA000E6E5F0E080818823DCF70E9477140F9040
:102AB000CF91DF910895DF93CF930F92CDB7DEB71B
:102AC0008983A3E2B0E0E3E2F0E080818E7F8C9323
:102AD000E6E5F0E084E88083E6E5F0E080818823A5
:102AE000DCF7A3E2B0E0E3E2F0E080818F708C934A
:102AF000E6E5F0E084E88083E6E5F0E08081882385
:102B0000DCF7A3E2B0E0E3E2F0E08081982F898176
:102B1000807F892B8C93E6E5F0E084E88083E6E50E
:102B2000F0E080818823DCF70E947714A3E2B0E014
:102B3000E3E2F0E080818F708C93E6E5F0E084E8DA
:102B40008083E6E5F0E080818823DCF7A3E2B0E053
:102B5000E3E2F0E08081282F8981882F90E0829540
:102B60009295907F9827807F9827822B8C93E6E51B
:102B7000F0E084E88083E6E5F0E080818823DCF7FC
:102B80000E9477140F90CF91DF910895DF93CF9338
:102B90000F92CDB7DEB78983A3E2B0E0E3E2F0E0C5
:102BA000808181608C93E6E5F0E084E88083E6E54F
:102BB000F0E080818823DCF7A3E2B0E0E3E2F0E01C
:102BC00080818F708C93E6E5F0E084E88083E6E511
:102BD000F0E080818823DCF7A3E2B0E0E3E2F0E0FC
:102BE0008081982F8981807F892B8C93E6E5F0E0A6
:102BF00084E88083E6E5F0E080818823DCF70E94AA
:102C00007714A3E2B0E0E3E2F0E080818F708C9370
:102C1000E6E5F0E084E88083E6E5F0E08081882363
:102C2000DCF7A3E2B0E0E3E2F0E08081282F8981C5
:102C3000882F90E082959295907F9827807F9827A3
:102C4000822B8C93E6E5F0E084E88083E6E5F0E013
:102C500080818823DCF70E9477140F90CF91DF9159
:102C60000895DF93CF93CDB7DEB781E00E945B1567
:102C7000CF91DF910895DF93CF9300D0CDB7DEB72A
:102C80009A8389830BC0E981FA81208189819A81A5
:102C900001969A838983822F0E94C615E981FA8161
:102CA0008081882381F70F900F90CF91DF91089555
:102CB000DF93CF9300D000D000D0CDB7DEB79E8396
:102CC0008D831C821B821A8219828D819E810097BE
:102CD00059F580E30E94C6154AC08B819C819C01F6
:102CE000220F331FC901880F991F880F991FF901FF
:102CF000E80FF91F8D819E812AE030E0B9010E9422
:102D0000C22A8E0F9F1F9C838B838D819E812AE018
:102D100030E0B9010E94C22ACB019E838D83898154
:102D20009A8101969A8389838D819E810097A9F665
:102D300019C08B819C812AE030E0B9010E94C22A2F
:102D4000805D0E94C6158B819C812AE030E0B9012C
:102D50000E94C22ACB019C838B8389819A8101972F
:102D60009A83898389819A811816190614F3269605
:102D70000FB6F894DEBF0FBECDBFCF91DF9108959F
:102D8000DF93CF9300D0CDB7DEB79A838983898153
:102D90009A8199232CF089819A810E9458160AC041
:102DA0008DE20E94C61589819A81909581959F4FE9
:102DB0000E9458160F900F90CF91DF910895DF93E6
:102DC000CF930F92CDB7DEB789838981883018F40D
:102DD00089810E94C6150F90CF91DF910895DF93EE
:102DE000CF9300D000D0CDB7DEB79B838A836C83AE
:102DF0008C81883010F58C81882F90E00896880FA0
:102E0000991F880F991F880F991F0E945B151982BF
:102E10000EC08981282F30E08A819B81FC01E20F5E
:102E2000F31F80810E94C61589818F5F8983898104
:102E3000883078F380E80E945B150F900F900F9018
:102E40000F90CF91DF910895DF93CF9300D0CDB74E
:102E5000DEB789836A838981882329F48A8180582F
:102E60000E945B1507C08981813021F48A818054DA
:102E70000E945B150F900F90CF91DF910895EF9214
:102E8000FF920F931F93DF93CF93CDB7DEB72997B0
:102E90000FB6F894DEBF0FBECDBF6D837E838F83E8
:102EA000988749876D817E818F8198850E9449002E
:102EB000DC01CB019C838B838985282F30E08AE05D
:102EC00090E0B9010E940E1EAA2797FDA095BA2F87
:102ED000BC01CD010E9455047B018C018B819C813A
:102EE000CC01A0E0B0E0BC01CD010E9407059B0130
:102EF000AC016D817E818F8198850E94C101DC01CA
:102F0000CB019C01AD01C801B7010E941F02DC0189
:102F1000CB01BC01CD010E944900DC01CB019A83A9
:102F200089838B819C810E94C0168EE20E94C61507
:102F300089819A810E94C01629960FB6F894DEBF47
:102F40000FBECDBFCF91DF911F910F91FF90EF90FA
:102F50000895DF93CF93CDB7DEB728970FB6F894D7
:102F6000DEBF0FBECDBF9E838D8378876F8381E0E8
:102F700090E09C838B838D819E81009761F48F818B
:102F80009885009729F48FEF9FEF9C838B8320C057
:102F90001C821B821DC01A82198213C02B813C81A6
:102FA0008D819E81AC01249FC001259F900D349F8F
:102FB000900D11249C838B8389819A8101969A8339
:102FC000898329813A818F8198852817390734F3BD
:102FD0008B819C8128960FB6F894DEBF0FBECDBFC3
:102FE000CF91DF9108950F931F93DF93CF93CDB7C8
:102FF000DEB7C654D0400FB6F894DEBF0FBECDBFCB
:1030000083E06FEF0E94B20A84E060E041E00E943A
:10301000F40A84E061E041E00E94F40A84E066E0A2
:1030200041E00E94F40AFE01ED5BFF4F80E090E07A
:10303000A0E2B2E480839183A283B3838E01015C1A
:103040001F4FFE01ED5BFF4F608171818281938193
:1030500020E030E04AEF54E40E941F02DC01CB0183
:10306000F80180839183A283B383FE01FF96608180
:1030700071818281938120E030E040E85FE30E942B
:10308000250488232CF481E090E09EAF8DAF46C0EC
:10309000FE01FF96608171818281938120E03FEF84
:1030A0004FE757E40E94C503181664F5FE01ED5B77
:1030B000FF4F608171818281938120E030E040E2A6
:1030C00051E40E941F02DC01CB01BC01CD010E9432
:1030D0004900DC01CB019EAF8DAF0FC088EC90E0C2
:1030E0009CAF8BAF8BAD9CAD0197F1F79CAF8BAFD5
:1030F0008DAD9EAD01979EAF8DAF8DAD9EAD00970E
:1031000069F716C0FE01FF9660817181828193810B
:103110000E944900DC01CB019EAF8DAF8DAD9EAD0D
:103120009AAF89AF89AD9AAD0197F1F79AAF89AFA0
:1031300088E30E94871B80E090E0A0E8BFE38DABAE
:103140009EABAFABB8AF6DA97EA98FA998AD20E0BB
:1031500030E04AEF54E40E941F02DC01CB0189AB4E
:103160009AABABABBCAB69A97AA98BA99CA920E0AF
:1031700030E040E85FE30E94250488232CF481E0DE
:1031800090E098AB8FA73FC069A97AA98BA99CA9A9
:1031900020E03FEF4FE757E40E94C50318164CF5B7
:1031A0006DA97EA98FA998AD20E030E040E251E4FE
:1031B0000E941F02DC01CB01BC01CD010E9449002D
:1031C000DC01CB0198AB8FA70FC088EC90E09EA7E5
:1031D0008DA78DA59EA50197F1F79EA78DA78FA519
:1031E00098A9019798AB8FA78FA598A9009769F721
:1031F00014C069A97AA98BA99CA90E944900DC0185
:10320000CB0198AB8FA78FA598A99CA78BA78BA55F
:103210009CA50197F1F79CA78BA78CE00E94871BC8
:1032200080E090E0A0E8BFE38FA398A7A9A7BAA782
:103230006FA178A589A59AA520E030E04AEF54E473
:103240000E941F02DC01CB018BA39CA3ADA3BEA3F4
:103250006BA17CA18DA19EA120E030E040E85FE35E
:103260000E94250488232CF481E090E09AA389A38E
:103270003FC06BA17CA18DA19EA120E03FEF4FE755
:1032800057E40E94C50318164CF56FA178A589A5CF
:103290009AA520E030E040E251E40E941F02DC01E8
:1032A000CB01BC01CD010E944900DC01CB019AA3F6
:1032B00089A30FC088EC90E098A38F8F8F8D98A181
:1032C0000197F1F798A38F8F89A19AA101979AA3EB
:1032D00089A389A19AA1009769F714C06BA17CA169
:1032E0008DA19EA10E944900DC01CB019AA389A374
:1032F00089A19AA19E8F8D8F8D8D9E8D0197F1F75B
:103300009E8F8D8F0E94971C80E090E0A0E0B0E43B
:10331000898F9A8FAB8FBC8F698D7A8D8B8D9C8DA9
:1033200020E030E04AEF54E40E941F02DC01CB01B0
:103330008D8B9E8BAF8BB88F6D897E898F89988D91
:1033400020E030E040E85FE30E94250488232CF46D
:1033500081E090E09C8B8B8B3FC06D897E898F894B
:10336000988D20E03FEF4FE757E40E94C503181601
:103370004CF5698D7A8D8B8D9C8D20E030E040E29C
:1033800051E40E941F02DC01CB01BC01CD010E946F
:103390004900DC01CB019C8B8B8B0FC088EC90E04B
:1033A0009A8B898B89899A890197F1F79A8B898BF6
:1033B0008B899C8901979C8B8B8B8B899C8900972F
:1033C00069F714C06D897E898F89988D0E944900A4
:1033D000DC01CB019C8B8B8B8B899C89988B8F8795
:1033E0008F8598890197F1F7988B8F8786E00E94E7
:1033F000871B80E090E0A0E8BFE38B879C87AD87C8
:10340000BE876B857C858D859E8520E030E04AEF08
:1034100054E40E941F02DC01CB018F839887A987A7
:10342000BA876F81788589859A8520E030E040E809
:103430005FE30E94250488232CF481E090E09E83C2
:103440008D833FC06F81788589859A8520E03FEF25
:103450004FE757E40E94C50318164CF56B857C8531
:103460008D859E8520E030E040E251E40E941F02FD
:10347000DC01CB01BC01CD010E944900DC01CB0184
:103480009E838D830FC088EC90E09C838B838B811F
:103490009C810197F1F79C838B838D819E8101979D
:1034A0009E838D838D819E81009769F714C06F8103
:1034B000788589859A850E944900DC01CB019E832D
:1034C0008D838D819E819A83898389819A810197D9
:1034D000F1F79A838983CA5BDF4F0FB6F894DEBF9A
:1034E0000FBECDBFCF91DF911F910F910895DF9354
:1034F000CF93CDB7DEB76D970FB6F894DEBF0FBE92
:10350000CDBF8D8F84E060E041E00E943C0C84E000
:1035100061E040E00E943C0C83E06D8D0E94FA0B5C
:1035200084E066E041E00E943C0C80E090E0A0E88E
:10353000BFE3898F9A8FAB8FBC8F698D7A8D8B8D0E
:103540009C8D20E030E04AEF54E40E941F02DC0131
:10355000CB018D8B9E8BAF8BB88F6D897E898F89C8
:10356000988D20E030E040E85FE30E942504882346
:103570002CF481E090E09C8B8B8B3FC06D897E8921
:103580008F89988D20E03FEF4FE757E40E94C503F5
:1035900018164CF5698D7A8D8B8D9C8D20E030E06E
:1035A00040E251E40E941F02DC01CB01BC01CD01CD
:1035B0000E944900DC01CB019C8B8B8B0FC088ECF7
:1035C00090E09A8B898B89899A890197F1F79A8B78
:1035D000898B8B899C8901979C8B8B8B8B899C8990
:1035E000009769F714C06D897E898F89988D0E9434
:1035F0004900DC01CB019C8B8B8B8B899C89988B40
:103600008F878F8598890197F1F7988B8F8784E052
:1036100066E040E00E943C0C80E090E0A0E8BFE360
:103620008B879C87AD87BE876B857C858D859E85C6
:1036300020E030E04AEF54E40E941F02DC01CB019D
:103640008F839887A987BA876F81788589859A85BE
:1036500020E030E040E85FE30E94250488232CF45A
:1036600081E090E09E838D833FC06F81788589855E
:103670009A8520E03FEF4FE757E40E94C5031816F4
:103680004CF56B857C858D859E8520E030E040E2A1
:1036900051E40E941F02DC01CB01BC01CD010E945C
:1036A0004900DC01CB019E838D830FC088EC90E044
:1036B0009C838B838B819C810197F1F79C838B8307
:1036C0008D819E8101979E838D838D819E81009740
:1036D00069F714C06F81788589859A850E944900B1
:1036E000DC01CB019E838D838D819E819A838983AA
:1036F00089819A810197F1F79A8389836D960FB634
:10370000F894DEBF0FBECDBFCF91DF910895DF9358
:10371000CF93CDB7DEB76D970FB6F894DEBF0FBE6F
:10372000CDBF8D8F84E060E040E00E943C0C84E0DF
:1037300061E040E00E943C0C83E06D8D0E94FA0B3A
:1037400084E066E041E00E943C0C80E090E0A0E86C
:10375000BFE3898F9A8FAB8FBC8F698D7A8D8B8DEC
:103760009C8D20E030E04AEF54E40E941F02DC010F
:10377000CB018D8B9E8BAF8BB88F6D897E898F89A6
:10378000988D20E030E040E85FE30E942504882324
:103790002CF481E090E09C8B8B8B3FC06D897E89FF
:1037A0008F89988D20E03FEF4FE757E40E94C503D3
:1037B00018164CF5698D7A8D8B8D9C8D20E030E04C
:1037C00040E251E40E941F02DC01CB01BC01CD01AB
:1037D0000E944900DC01CB019C8B8B8B0FC088ECD5
:1037E00090E09A8B898B89899A890197F1F79A8B56
:1037F000898B8B899C8901979C8B8B8B8B899C896E
:10380000009769F714C06D897E898F89988D0E9411
:103810004900DC01CB019C8B8B8B8B899C89988B1D
:103820008F878F8598890197F1F7988B8F8784E030
:1038300066E040E00E943C0C80E090E0A0E8BFE33E
:103840008B879C87AD87BE876B857C858D859E85A4
:1038500020E030E04AEF54E40E941F02DC01CB017B
:103860008F839887A987BA876F81788589859A859C
:1038700020E030E040E85FE30E94250488232CF438
:1038800081E090E09E838D833FC06F81788589853C
:103890009A8520E03FEF4FE757E40E94C5031816D2
:1038A0004CF56B857C858D859E8520E030E040E27F
:1038B00051E40E941F02DC01CB01BC01CD010E943A
:1038C0004900DC01CB019E838D830FC088EC90E022
:1038D0009C838B838B819C810197F1F79C838B83E5
:1038E0008D819E8101979E838D838D819E8100971E
:1038F00069F714C06F81788589859A850E9449008F
:10390000DC01CB019E838D838D819E819A83898387
:1039100089819A810197F1F79A8389836D960FB611
:10392000F894DEBF0FBECDBFCF91DF910895DF9336
:10393000CF93CDB7DEB781E00E94871BCF91DF9197
:103940000895DF93CF9300D0CDB7DEB79A838983F4
:103950000AC0E981FA8180810E94771A89819A815F
:1039600001969A838983E981FA818081882389F786
:103970000F900F90CF91DF910895DF93CF9300D0F8
:1039800000D000D0CDB7DEB79E838D831C821B8212
:103990001A8219828D819E81009759F580E30E94D9
:1039A000771A4AC08B819C819C01220F331FC90169
:1039B000880F991F880F991FF901E80FF91F8D8152
:1039C0009E812AE030E0B9010E94C22A8E0F9F1F1B
:1039D0009C838B838D819E812AE030E0B9010E9417
:1039E000C22ACB019E838D8389819A8101969A8315
:1039F00089838D819E810097A9F619C08B819C8156
:103A00002AE030E0B9010E94C22A805D0E94771A44
:103A10008B819C812AE030E0B9010E94C22ACB014F
:103A20009C838B8389819A8101979A838983898179
:103A30009A811816190614F326960FB6F894DEBF6D
:103A40000FBECDBFCF91DF910895DF93CF9300D00C
:103A5000CDB7DEB79A83898389819A8199232CF027
:103A600089819A810E94BD1C0AC08DE20E94771A4A
:103A700089819A81909581959F4F0E94BD1C0F90DE
:103A80000F90CF91DF910895DF93CF930F92CDB731
:103A9000DEB789838981883018F489810E94771A7A
:103AA0000F90CF91DF910895DF93CF9300D000D096
:103AB000CDB7DEB79B838A836C838C81883010F509
:103AC0008C81882F90E00896880F991F880F991F86
:103AD000880F991F0E94871B19820EC08981282F89
:103AE00030E08A819B81FC01E20FF31F80810E94FC
:103AF000771A89818F5F89838981883078F380E89C
:103B00000E94871B0F900F900F900F90CF91DF9125
:103B10000895DF93CF9300D0CDB7DEB789836A8352
:103B20008981882329F48A8180580E94871B07C0D5
:103B30008981813021F48A8180540E94871B0F90F3
:103B40000F90CF91DF910895EF92FF920F931F9303
:103B5000DF93CF93CDB7DEB729970FB6F894DEBFCA
:103B60000FBECDBF6D837E838F83988749876D811C
:103B70007E818F8198850E944900DC01CB019C8366
:103B80008B838985282F30E08AE090E0B9010E947C
:103B90000E1EAA2797FDA095BA2FBC01CD010E9449
:103BA00055047B018C018B819C81CC01A0E0B0E0AD
:103BB000BC01CD010E9407059B01AC016D817E8196
:103BC0008F8198850E94C101DC01CB019C01AD0170
:103BD000C801B7010E941F02DC01CB01BC01CD016D
:103BE0000E944900DC01CB019A8389838B819C81EF
:103BF0000E94251D8EE20E94771A89819A810E9477
:103C0000251D29960FB6F894DEBF0FBECDBFCF910C
:103C1000DF911F910F91FF90EF900895DF93CF9365
:103C2000CDB7DEB728970FB6F894DEBF0FBECDBF75
:103C30009E838D8378876F8381E090E09C838B8364
:103C40008D819E81009761F48F819885009729F47A
:103C50008FEF9FEF9C838B8320C01C821B821DC033
:103C60001A82198213C02B813C818D819E81AC0107
:103C7000249FC001259F900D349F900D11249C839B
:103C80008B8389819A8101969A83898329813A81DC
:103C90008F8198852817390734F38B819C8128966A
:103CA0000FB6F894DEBF0FBECDBFCF91DF91089560
:103CB000DF93CF93CDB7DEB782E06FE00E94B20A08
:103CC00082E060EF0E94FA0BCF91DF910895DF93BD
:103CD000CF93CDB7DEB762970FB6F894DEBF0FBEB5
:103CE000CDBF1A8A1F86B3C0198AADC082E0698928
:103CF00040E00E943C0C188A97C08889982F9C5FEE
:103D000082E0692F0E94850D882309F08AC0898985
:103D1000882F90E0880F991F880F991F982F888906
:103D2000890F8F5F8A8B8889982F9C5F82E0692F2B
:103D30000E94850D8823B9F380E090E0A0EAB0E40A
:103D40008B879C87AD87BE876B857C858D859E859F
:103D500020E030E04AEF54E40E941F02DC01CB0176
:103D60008F839887A987BA876F81788589859A8597
:103D700020E030E040E85FE30E94250488232CF433
:103D800081E090E09E838D833FC06F817885898537
:103D90009A8520E03FEF4FE757E40E94C5031816CD
:103DA0004CF56B857C858D859E8520E030E040E27A
:103DB00051E40E941F02DC01CB01BC01CD010E9435
:103DC0004900DC01CB019E838D830FC088EC90E01D
:103DD0009C838B838B819C810197F1F79C838B83E0
:103DE0008D819E8101979E838D838D819E81009719
:103DF00069F714C06F81788589859A850E9449008A
:103E0000DC01CB019E838D838D819E819A83898382
:103E100089819A810197F1F79A83898381E08F875D
:103E200007C088898F5F888B8889843008F465CFC4
:103E300082E0698941E00E943C0C8F85813039F035
:103E400089898F5F898B8989843008F44FCF8F856A
:103E5000882309F449CF8A8962960FB6F894DEBFA9
:103E60000FBECDBFCF91DF910895DF93CF93CDB734
:103E7000DEB70E94660A0E94780A80E70E94880ADC
:103E80000E94FF110E94581E0E9475070E94A511F2
:103E90000E947C10CF91DF910895DF93CF93CDB72F
:103EA000DEB784E067E041E00E94F40A81E060E070
:103EB00041E00E94F40A81E061E041E00E94F40ADE
:103EC0008EE392E060E00E94EF1684E063E041E060
:103ED0000E94F40A84E063E041E00E943C0C0E94EE
:103EE000030E80E062E00E941F0ECF91DF910895E3
:103EF000DF93CF93CDB7DEB70E944D1F0E942921DB
:103F0000CF91DF910895DF93CF93CDB7DEB76D9753
:103F10000FB6F894DEBF0FBECDBF1D8EF9C080E096
:103F200064E00E94241780E690E00E943B1681E046
:103F300063E00E94241789E690E00E943B1680E02F
:103F400090E0A6E9B3E4898F9A8FAB8FBC8F698D1F
:103F50007A8D8B8D9C8D20E030E04AEF54E40E94F6
:103F60001F02DC01CB018D8B9E8BAF8BB88F6D89CF
:103F70007E898F89988D20E030E040E85FE30E94E1
:103F8000250488232CF481E090E09C8B8B8B3FC030
:103F90006D897E898F89988D20E03FEF4FE757E448
:103FA0000E94C50318164CF5698D7A8D8B8D9C8DFA
:103FB00020E030E040E251E40E941F02DC01CB012E
:103FC000BC01CD010E944900DC01CB019C8B8B8B95
:103FD0000FC088EC90E09A8B898B89899A89019728
:103FE000F1F79A8B898B8B899C8901979C8B8B8BA2
:103FF0008B899C89009769F714C06D897E898F89A8
:10400000988D0E944900DC01CB019C8B8B8B8B89A6
:104010009C89988B8F878F8598890197F1F7988B6A
:104020008F870E94311680E090E0A6E9B3E48B8789
:104030009C87AD87BE876B857C858D859E8520E0BE
:1040400030E04AEF54E40E941F02DC01CB018F8371
:104050009887A987BA876F81788589859A8520E0B6
:1040600030E040E85FE30E94250488232CF481E0DF
:1040700090E09E838D833FC06F81788589859A8586
:1040800020E03FEF4FE757E40E94C50318164CF5B8
:104090006B857C858D859E8520E030E040E251E493
:1040A0000E941F02DC01CB01BC01CD010E9449002E
:1040B000DC01CB019E838D830FC088EC90E09C8354
:1040C0008B838B819C810197F1F79C838B838D81FE
:1040D0009E8101979E838D838D819E81009769F7D4
:1040E00014C06F81788589859A850E944900DC011A
:1040F000CB019E838D838D819E819A838983898163
:104100009A810197F1F79A8389838D8D8F5F8D8FC7
:104110008D8D833008F403CF6D960FB6F894DEBF13
:104120000FBECDBFCF91DF910895DF93CF93CDB771
:10413000DEB72E970FB6F894DEBF0FBECDBF0E943C
:10414000311684E790E00E943B1680E06AE00E940E
:10415000241780E00E94DF1680E090E0AAE7B4E434
:104160008B879C87AD87BE876B857C858D859E857B
:1041700020E030E04AEF54E40E941F02DC01CB0152
:104180008F839887A987BA876F81788589859A8573
:1041900020E030E040E85FE30E94250488232CF40F
:1041A00081E090E09E838D833FC06F817885898513
:1041B0009A8520E03FEF4FE757E40E94C5031816A9
:1041C0004CF56B857C858D859E8520E030E040E256
:1041D00051E40E941F02DC01CB01BC01CD010E9411
:1041E0004900DC01CB019E838D830FC088EC90E0F9
:1041F0009C838B838B819C810197F1F79C838B83BC
:104200008D819E8101979E838D838D819E810097F4
:1042100069F714C06F81788589859A850E94490065
:10422000DC01CB019E838D838D819E819A8389835E
:1042300089819A810197F1F79A8389830E943116C7
:104240002E960FB6F894DEBF0FBECDBFCF91DF9193
:104250000895DF93CF93CDB7DEB764970FB6F89488
:10426000DEBF0FBECDBF1C8A1B8A1A8A198A80E066
:1042700060E00E9424178DE790E00E943B1688EED4
:1042800093E0988B8F8781E061E00E9424171C8A5D
:104290001B8A8A898F5F8A8B0E94671E898B8AE2BC
:1042A0000E94C6158989282F30E08F859889A90139
:1042B000489F9001499F300D589F300D11248B89E4
:1042C0009C89820F931F9C8B8B8B8F8598892AE00A
:1042D00030E0B9010E94AE2ACB01988B8F878B8981
:1042E0009C8954E0823D950711F40E9437228F8506
:1042F0009889009789F688EE93E0988B8F878B8951
:104300009C8924E0823D920709F48CC081E061E041
:104310000E94241789E890E00E943B1680E090E01C
:10432000AAEFB3E48B879C87AD87BE876B857C85BE
:104330008D859E8520E030E04AEF54E40E941F0204
:10434000DC01CB018F839887A987BA876F81788535
:1043500089859A8520E030E040E85FE30E942504EB
:1043600088232CF481E090E09E838D833FC06F8191
:10437000788589859A8520E03FEF4FE757E40E94D2
:10438000C50318164CF56B857C858D859E8520E0D0
:1043900030E040E251E40E941F02DC01CB01BC018D
:1043A000CD010E944900DC01CB019E838D830FC0AB
:1043B00088EC90E09C838B838B819C810197F1F743
:1043C0009C838B838D819E8101979E838D838D81BC
:1043D0009E81009769F714C06F81788589859A85D9
:1043E0000E944900DC01CB019E838D838D819E81DB
:1043F0009A83898389819A810197F1F79A838983C6
:1044000081E061E00E94241785E990E00E943B165C
:104410008A89833038F48B899C8944E0823D9407F3
:1044200009F031CF8A89813031F08A89823019F0E0
:104430008A89833041F48B899C8954E0823D9507B9
:1044400011F00E94662964960FB6F894DEBF0FBE85
:10445000CDBFCF91DF910895DF93CF93CDB7DEB776
:104460000E9495200E94CF28CF91DF910895DF937D
:10447000CF93CDB7DEB7AE970FB6F894DEBF0FBEC1
:10448000CDBF0E942C2282E00E94AD109EA78DA776
:104490008DA59EA5CC01A0E0B0E024EF31E040E086
:1044A00050E0BC01CD010E948F2ADC01CB01072E18
:1044B0007AE0B695A795979587957A95D1F7702D5F
:1044C0009CA78BA70E94311682EA90E00E943B16BF
:1044D0008BA59CA50E94C0168BEA90E00E943B161B
:1044E00080E090E0AAEFB3E48FA398A7A9A7BAA7AA
:1044F0006FA178A589A59AA520E030E04AEF54E4A1
:104500000E941F02DC01CB018BA39CA3ADA3BEA321
:104510006BA17CA18DA19EA120E030E040E85FE38B
:104520000E94250488232CF481E090E09AA389A3BB
:104530003FC06BA17CA18DA19EA120E03FEF4FE782
:1045400057E40E94C50318164CF56FA178A589A5FC
:104550009AA520E030E040E251E40E941F02DC0115
:10456000CB01BC01CD010E944900DC01CB019AA323
:1045700089A30FC088EC90E098A38F8F8F8D98A1AE
:104580000197F1F798A38F8F89A19AA101979AA318
:1045900089A389A19AA1009769F714C06BA17CA196
:1045A0008DA19EA10E944900DC01CB019AA389A3A1
:1045B00089A19AA19E8F8D8F8D8D9E8D0197F1F788
:1045C0009E8F8D8F2FEA38E280E0B9010E94431060
:1045D00084E063E00E94850D882309F490C08BA5D8
:1045E0009CA58332910558F081E060E00E94241779
:1045F0008EEA90E00E943B160E94132444CF81E093
:1046000060E00E9424178EEB90E00E943B1680E051
:1046100090E0AAE7B4E4898F9A8FAB8FBC8F698D45
:104620007A8D8B8D9C8D20E030E04AEF54E40E941F
:104630001F02DC01CB018D8B9E8BAF8BB88F6D89F8
:104640007E898F89988D20E030E040E85FE30E940A
:10465000250488232CF481E090E09C8B8B8B3FC059
:104660006D897E898F89988D20E03FEF4FE757E471
:104670000E94C50318164CF5698D7A8D8B8D9C8D23
:1046800020E030E040E251E40E941F02DC01CB0157
:10469000BC01CD010E944900DC01CB019C8B8B8BBE
:1046A0000FC088EC90E09A8B898B89899A89019751
:1046B000F1F79A8B898B8B899C8901979C8B8B8BCB
:1046C0008B899C89009769F714C06D897E898F89D1
:1046D000988D0E944900DC01CB019C8B8B8B8B89D0
:1046E0009C89988B8F878F8598890197F1F7988B94
:1046F0008F8780E00E94B5110E94F211C4CE81E044
:1047000060E00E9424178BEC90E00E943B1680E052
:1047100090E0AAE7B4E48B879C87AD87BE876B8562
:104720007C858D859E8520E030E04AEF54E40E9430
:104730001F02DC01CB018F839887A987BA876F811D
:10474000788589859A8520E030E040E85FE30E9423
:10475000250488232CF481E090E09E838D833FC064
:104760006F81788589859A8520E03FEF4FE757E490
:104770000E94C50318164CF56B857C858D859E853A
:1047800020E030E040E251E40E941F02DC01CB0156
:10479000BC01CD010E944900DC01CB019E838D83C9
:1047A0000FC088EC90E09C838B838B819C81019768
:1047B000F1F79C838B838D819E8101979E838D83EE
:1047C0008D819E81009769F714C06F8178858985F6
:1047D0009A850E944900DC01CB019E838D838D81E7
:1047E0009E819A83898389819A810197F1F79A83BF
:1047F00089830E94FC2347CEDF93CF93CDB7DEB7EA
:1048000081E060E00E9424178BEC90E00E943B1650
:1048100081E00E94D8070E94F21181E00E941208F4
:10482000CF91DF9108950F931F93DF93CF93CDB76F
:10483000DEB7C057D0400FB6F894DEBF0FBECDBF75
:1048400081E00E94D8070E94F211FE01E359FF4F58
:1048500080E090E0AAE7B4E480839183A283B383ED
:104860008E0107591F4FFE01E359FF4F608171818F
:104870008281938120E030E04AEF54E40E941F02DD
:10488000DC01CB01F80180839183A283B383FE0115
:10489000E759FF4F608171818281938120E030E090
:1048A00040E85FE30E942504882344F4FE01E959AF
:1048B000FF4F81E090E09183808364C0FE01E7595F
:1048C000FF4F608171818281938120E03FEF4FE74C
:1048D00057E40E94C50318160CF043C0FE01E359CB
:1048E000FF4F608171818281938120E030E040E25E
:1048F00051E40E941F02DC01CB018E0109591F4FB8
:10490000BC01CD010E944900DC01CB01F80191837B
:1049100080831FC0FE01EB59FF4F88EC90E091832C
:104920008083FE01EB59FF4F808191810197F1F760
:10493000FE01EB59FF4F91838083DE01A959BF4FE0
:10494000FE01E959FF4F80819181019711969C9357
:104950008E93FE01E959FF4F808191810097D1F636
:1049600027C08E0109591F4FFE01E759FF4F608193
:104970007181828193810E944900DC01CB01F801A1
:1049800091838083DE01AD59BF4FFE01E959FF4F8E
:10499000808191818D939C93FE01ED59FF4F808121
:1049A00091810197F1F7FE01ED59FF4F91838083CB
:1049B0008DE20E94B511FE01E15AFF4F80E090E0C8
:1049C000AAE7B4E480839183A283B3838E01055A5E
:1049D0001F4FFE01E15AFF4F6081718182819381F7
:1049E00020E030E04AEF54E40E941F02DC01CB01DA
:1049F000F80180839183A283B383FE01E55AFF4FC0
:104A0000608171818281938120E030E040E85FE342
:104A10000E942504882344F4FE01E75AFF4F81E0F9
:104A200090E09183808364C0FE01E55AFF4F60816E
:104A300071818281938120E03FEF4FE757E40E942C
:104A4000C50318160CF043C0FE01E15AFF4F608108
:104A500071818281938120E030E040E251E40E9444
:104A60001F02DC01CB018E01075A1F4FBC01CD0193
:104A70000E944900DC01CB01F801918380831FC0B3
:104A8000FE01E95AFF4F88EC90E091838083FE019C
:104A9000E95AFF4F808191810197F1F7FE01E95AB0
:104AA000FF4F91838083DE01A75ABF4FFE01E75A73
:104AB000FF4F80819181019711969C938E93FE0107
:104AC000E75AFF4F808191810097D1F627C08E0170
:104AD000075A1F4FFE01E55AFF4F608171818281A5
:104AE00093810E944900DC01CB01F801918380830E
:104AF000DE01AB5ABF4FFE01E75AFF4F8081918123
:104B00008D939C93FE01EB5AFF4F80819181019719
:104B1000F1F7FE01EB5AFF4F918380838AE50E94F3
:104B2000B511FE01EF5AFF4F80E090E0AAE7B4E430
:104B300080839183A283B3838E01035B1F4FFE01A9
:104B4000EF5AFF4F608171818281938120E030E0D4
:104B50004AEF54E40E941F02DC01CB01F80180837C
:104B60009183A283B383FE01E35BFF4F6081718178
:104B70008281938120E030E040E85FE30E942504D9
:104B8000882344F4FE01E55BFF4F81E090E09183D0
:104B9000808364C0FE01E35BFF4F6081718182818D
:104BA000938120E03FEF4FE757E40E94C5031816BA
:104BB0000CF043C0FE01EF5AFF4F6081718182818A
:104BC000938120E030E040E251E40E941F02DC01CA
:104BD000CB018E01055B1F4FBC01CD010E94490036
:104BE000DC01CB01F801918380831FC0FE01E75BEC
:104BF000FF4F88EC90E091838083FE01E75BFF4FDD
:104C0000808191810197F1F7FE01E75BFF4F91836E
:104C10008083DE01A55BBF4FFE01E55BFF4F808116
:104C20009181019711969C938E93FE01E55BFF4F56
:104C3000808191810097D1F627C08E01055B1F4FBF
:104C4000FE01E35BFF4F60817181828193810E944D
:104C50004900DC01CB01F80191838083DE01A95B6F
:104C6000BF4FFE01E55BFF4F808191818D939C9347
:104C7000FE01E95BFF4F808191810197F1F7FE0111
:104C8000E95BFF4F9183808387E80E94B511FE01A5
:104C9000ED5BFF4F80E090E0AAE7B4E4808391836E
:104CA000A283B3838E01015C1F4FFE01ED5BFF4FBA
:104CB000608171818281938120E030E04AEF54E489
:104CC0000E941F02DC01CB01F80180839183A28343
:104CD000B383FE01FF96608171818281938120E020
:104CE00030E040E85FE30E94250488232CF481E053
:104CF00090E09EAF8DAF46C0FE01FF96608171814E
:104D00008281938120E03FEF4FE757E40E94C50383
:104D1000181664F5FE01ED5BFF4F608171818281A1
:104D2000938120E030E040E251E40E941F02DC0168
:104D3000CB01BC01CD010E944900DC01CB019EAF3B
:104D40008DAF0FC088EC90E09CAF8BAF8BAD9CAD6E
:104D50000197F1F79CAF8BAF8DAD9EAD01979EAFE4
:104D60008DAF8DAD9EAD009769F716C0FE01FF9621
:104D700060817181828193810E944900DC01CB01B5
:104D80009EAF8DAF8DAD9EAD9AAF89AF89AD9AAD17
:104D90000197F1F79AAF89AF84EB0E94B51180E0DB
:104DA00090E0AAE7B4E48DAB9EABAFABB8AF6DA912
:104DB0007EA98FA998AD20E030E04AEF54E40E942C
:104DC0001F02DC01CB0189AB9AABABABBCAB69A9D1
:104DD0007AA98BA99CA920E030E040E85FE30E941B
:104DE000250488232CF481E090E098AB8FA73FC086
:104DF00069A97AA98BA99CA920E03FEF4FE757E466
:104E00000E94C50318164CF56DA97EA98FA998AD0F
:104E100020E030E040E251E40E941F02DC01CB01BF
:104E2000BC01CD010E944900DC01CB0198AB8FA7EA
:104E30000FC088EC90E09EA78DA78DA59EA5019739
:104E4000F1F79EA78DA78FA598A9019798AB8FA77B
:104E50008FA598A9009769F714C069A97AA98BA9A9
:104E60009CA90E944900DC01CB0198AB8FA78FA5BC
:104E700098A99CA78BA78BA59CA50197F1F79CA748
:104E80008BA787E80E94B51180E090E0AAE7B4E420
:104E90008FA398A7A9A7BAA76FA178A589A59AA556
:104EA00020E030E04AEF54E40E941F02DC01CB0115
:104EB0008BA39CA3ADA3BEA36BA17CA18DA19EA13E
:104EC00020E030E040E85FE30E94250488232CF4D2
:104ED00081E090E09AA389A33FC06BA17CA18DA142
:104EE0009EA120E03FEF4FE757E40E94C50318164C
:104EF0004CF56FA178A589A59AA520E030E040E2A5
:104F000051E40E941F02DC01CB01BC01CD010E94D3
:104F10004900DC01CB019AA389A30FC088EC90E083
:104F200098A38F8F8F8D98A10197F1F798A38F8FFA
:104F300089A19AA101979AA389A389A19AA100970F
:104F400069F714C06BA17CA18DA19EA10E944900AC
:104F5000DC01CB019AA389A389A19AA19E8F8D8F91
:104F60008D8D9E8D0197F1F79E8F8D8F8AE50E9422
:104F7000B51180E090E0AAE7B4E4898F9A8FAB8FF7
:104F8000BC8F698D7A8D8B8D9C8D20E030E04AEF4F
:104F900054E40E941F02DC01CB018D8B9E8BAF8BF2
:104FA000B88F6D897E898F89988D20E030E040E848
:104FB0005FE30E94250488232CF481E090E09C8B21
:104FC0008B8B3FC06D897E898F89988D20E03FEF64
:104FD0004FE757E40E94C50318164CF5698D7A8D8A
:104FE0008B8D9C8D20E030E040E251E40E941F0256
:104FF000DC01CB01BC01CD010E944900DC01CB01E9
:105000009C8B8B8B0FC088EC90E09A8B898B898965
:105010009A890197F1F79A8B898B8B899C890197E3
:105020009C8B8B8B8B899C89009769F714C06D8949
:105030007E898F89988D0E944900DC01CB019C8B71
:105040008B8B8B899C89988B8F878F85988901970B
:10505000F1F7988B8F878DE20E94B51180E090E088
:10506000AAE7B4E48B879C87AD87BE876B857C8578
:105070008D859E8520E030E04AEF54E40E941F02B7
:10508000DC01CB018F839887A987BA876F817885E8
:1050900089859A8520E030E040E85FE30E9425049E
:1050A00088232CF481E090E09E838D833FC06F8144
:1050B000788589859A8520E03FEF4FE757E40E9485
:1050C000C50318164CF56B857C858D859E8520E083
:1050D00030E040E251E40E941F02DC01CB01BC0140
:1050E000CD010E944900DC01CB019E838D830FC05E
:1050F00088EC90E09C838B838B819C810197F1F7F6
:105100009C838B838D819E8101979E838D838D816E
:105110009E81009769F714C06F81788589859A858B
:105120000E944900DC01CB019E838D838D819E818D
:105130009A83898389819A810197F1F79A83898378
:1051400081E00E941208C059DF4F0FB6F894DEBF0D
:105150000FBECDBFCF91DF911F910F910895DF93C7
:10516000CF93CDB7DEB70E94521180E00E94730E3C
:1051700081E00E94D8070E94F21181E00E9412088B
:105180000E9431168AED90E00E943B1681E065E0B6
:105190000E94241788EE90E00E943B16FFCFDF9319
:1051A000CF93CDB7DEB72E970FB6F894DEBF0FBE04
:1051B000CDBF0E9431168CEE90E00E943B1681E03C
:1051C00061E041E00E943C0C80E090E8ABE3B5E494
:1051D0008B879C87AD87BE876B857C858D859E85FB
:1051E00020E030E04AEF54E40E941F02DC01CB01D2
:1051F0008F839887A987BA876F81788589859A85F3
:1052000020E030E040E85FE30E94250488232CF48E
:1052100081E090E09E838D833FC06F817885898592
:105220009A8520E03FEF4FE757E40E94C503181628
:105230004CF56B857C858D859E8520E030E040E2D5
:1052400051E40E941F02DC01CB01BC01CD010E9490
:105250004900DC01CB019E838D830FC088EC90E078
:105260009C838B838B819C810197F1F79C838B833B
:105270008D819E8101979E838D838D819E81009774
:1052800069F714C06F81788589859A850E944900E5
:10529000DC01CB019E838D838D819E819A838983DE
:1052A00089819A810197F1F79A83898381E061E08E
:1052B00040E00E943C0C0E9431162E960FB6F894E6
:1052C000DEBF0FBECDBFCF91DF910895DF93CF93A7
:1052D000CDB7DEB76D970FB6F894DEBF0FBECDBF6A
:1052E00082E00E94D8071D8E07C10E94311681E01E
:1052F00091E00E943B1682E060E040E850E00E94AE
:105300009F0881E060E041E00E943C0C80E090E07A
:10531000AAEFB3E4898F9A8FAB8FBC8F698D7A8D9A
:105320008B8D9C8D20E030E04AEF54E40E941F02F8
:10533000DC01CB018D8B9E8BAF8BB88F6D897E8905
:105340008F89988D20E030E040E85FE30E942504DB
:1053500088232CF481E090E09C8B8B8B3FC06D897F
:105360007E898F89988D20E03FEF4FE757E40E94B8
:10537000C50318164CF5698D7A8D8B8D9C8D20E0B8
:1053800030E040E251E40E941F02DC01CB01BC018D
:10539000CD010E944900DC01CB019C8B8B8B0FC09F
:1053A00088EC90E09A8B898B89899A890197F1F72B
:1053B0009A8B898B8B899C8901979C8B8B8B8B8992
:1053C0009C89009769F714C06D897E898F89988DB3
:1053D0000E944900DC01CB019C8B8B8B8B899C89C3
:1053E000988B8F878F8598890197F1F7988B8F8796
:1053F00082E191E00E943B1682E060E040E050E0F4
:105400000E949F0881E060E040E00E943C0C80E048
:1054100090E0AAEFB3E48B879C87AD87BE876B854E
:105420007C858D859E8520E030E04AEF54E40E9423
:105430001F02DC01CB018F839887A987BA876F8110
:10544000788589859A8520E030E040E85FE30E9416
:10545000250488232CF481E090E09E838D833FC057
:105460006F81788589859A8520E03FEF4FE757E483
:105470000E94C50318164CF56B857C858D859E852D
:1054800020E030E040E251E40E941F02DC01CB0149
:10549000BC01CD010E944900DC01CB019E838D83BC
:1054A0000FC088EC90E09C838B838B819C8101975B
:1054B000F1F79C838B838D819E8101979E838D83E1
:1054C0008D819E81009769F714C06F8178858985E9
:1054D0009A850E944900DC01CB019E838D838D81DA
:1054E0009E819A83898389819A810197F1F79A83B2
:1054F00089838D8D8F5F8D8F8D8D833008F4F5CEF0
:1055000082E00E941208FFCFDF93CF93CDB7DEB7C2
:105510000E94351F0E94831F0E94781FFDCF629F4B
:10552000D001739FF001829FE00DF11D649FE00D9B
:10553000F11D929FF00D839FF00D749FF00D659FFC
:10554000F00D9927729FB00DE11DF91F639FB00DFB
:10555000E11DF91FBD01CF0111240895AA1BBB1B3A
:1055600051E107C0AA1FBB1FA617B70710F0A61B63
:10557000B70B881F991F5A95A9F780959095BC0184
:10558000CD01089597FB092E07260AD077FD04D098
:10559000E5DF06D000201AF4709561957F4F0895DD
:1055A000F6F7909581959F4F08952F923F924F92D5
:1055B0005F926F927F928F929F92AF92BF92CF92A3
:1055C000DF92EF92FF920F931F93CF93DF93CDB7AC
:1055D000DEB7CA1BDB0B0FB6F894DEBF0FBECDBF24
:1055E00009942A88398848885F846E847D848C84F5
:1055F0009B84AA84B984C884DF80EE80FD800C81FE
:105600001B81AA81B981CE0FD11D0FB6F894DEBFE0
:0C5610000FBECDBFED010895F894FFCF50
:10561C00204E41474148202000536D617274204850
:10562C006F6D650057656C636F6D652000456E741A
:10563C00657220706173733A0054727920616761EE
:10564C00696E2021002020202020202020202020D6
:10565C00200054656D703D20202000204300414304
:10566C0020697320776F726B696E672E2E00466906
:10567C006E652057656174686572004143206973DB
:10568C002064697361626C656400476C61672074A7
:10569C006F205365727665005E5F5E004F70656EBD
:1056AC00696E672074686520646F6F72202E2E2ED1
:1056BC00004163636573732069732064656E69656B
:1056CC0064002020202020202020202020202020AA
:1056DC00202020202000000000000000000000011D
:1056EC000202030303030404040404040404050574
:1056FC00050505050505050505050505050506064C
:10570C00060606060606060606060606060606062D
:10571C00060606060606060606060606060607071B
:10572C0007070707070707070707070707070707FD
:10573C0007070707070707070707070707070707ED
:10574C0007070707070707070707070707070707DD
:10575C0007070707070707070707070707070808CB
:10576C0008080808080808080808080808080808AD
:10577C00080808080808080808080808080808089D
:10578C00080808080808080808080808080808088D
:10579C00080808080808080808080808080808087D
:1057AC00080808080808080808080808080808086D
:1057BC00080808080808080808080808080808085D
:1057CC00080808080808080808080808080808084D
:1057DC0008080808080808080808080808082F39E5
:1057EC003837583635342D3332312B3D3064000A7E
:0657FC001F1F0E0E040049
:00000001FF
